{
  "_format": "hh-sol-artifact-1",
  "contractName": "BigData",
  "sourceName": "contracts/BigData.sol",
  "abi": [
    {
      "anonymous": false,
      "inputs": [
        {
          "indexed": true,
          "internalType": "address",
          "name": "previousOwner",
          "type": "address"
        },
        {
          "indexed": true,
          "internalType": "address",
          "name": "newOwner",
          "type": "address"
        }
      ],
      "name": "OwnershipTransferred",
      "type": "event"
    },
    {
      "inputs": [],
      "name": "merkleRoot",
      "outputs": [
        {
          "internalType": "bytes32",
          "name": "",
          "type": "bytes32"
        }
      ],
      "stateMutability": "view",
      "type": "function"
    },
    {
      "inputs": [],
      "name": "owner",
      "outputs": [
        {
          "internalType": "address",
          "name": "",
          "type": "address"
        }
      ],
      "stateMutability": "view",
      "type": "function"
    },
    {
      "inputs": [
        {
          "internalType": "uint256",
          "name": "_amount",
          "type": "uint256"
        },
        {
          "internalType": "bytes",
          "name": "_signature",
          "type": "bytes"
        },
        {
          "internalType": "bytes",
          "name": "_data",
          "type": "bytes"
        },
        {
          "internalType": "bytes32[]",
          "name": "_merkleProof",
          "type": "bytes32[]"
        },
        {
          "internalType": "string",
          "name": "_nonce",
          "type": "string"
        }
      ],
      "name": "purchase",
      "outputs": [],
      "stateMutability": "nonpayable",
      "type": "function"
    },
    {
      "inputs": [],
      "name": "renounceOwnership",
      "outputs": [],
      "stateMutability": "nonpayable",
      "type": "function"
    },
    {
      "inputs": [
        {
          "internalType": "bytes32",
          "name": "_merkleRoot",
          "type": "bytes32"
        }
      ],
      "name": "setMerkleRoot",
      "outputs": [],
      "stateMutability": "nonpayable",
      "type": "function"
    },
    {
      "inputs": [
        {
          "internalType": "address",
          "name": "_address",
          "type": "address"
        }
      ],
      "name": "setSystemAddress",
      "outputs": [],
      "stateMutability": "nonpayable",
      "type": "function"
    },
    {
      "inputs": [],
      "name": "systemAddress",
      "outputs": [
        {
          "internalType": "address",
          "name": "",
          "type": "address"
        }
      ],
      "stateMutability": "view",
      "type": "function"
    },
    {
      "inputs": [
        {
          "internalType": "address",
          "name": "newOwner",
          "type": "address"
        }
      ],
      "name": "transferOwnership",
      "outputs": [],
      "stateMutability": "nonpayable",
      "type": "function"
    }
  ],
  "bytecode": "0x608060405234801561001057600080fd5b5061002d61002261003260201b60201c565b61003a60201b60201c565b6100fe565b600033905090565b60008060009054906101000a900473ffffffffffffffffffffffffffffffffffffffff169050816000806101000a81548173ffffffffffffffffffffffffffffffffffffffff021916908373ffffffffffffffffffffffffffffffffffffffff1602179055508173ffffffffffffffffffffffffffffffffffffffff168173ffffffffffffffffffffffffffffffffffffffff167f8be0079c531659141344cd1fd0a4f28419497f9722a3daafe3b4186f6b6457e060405160405180910390a35050565b6118148061010d6000396000f3fe608060405234801561001057600080fd5b50600436106100885760003560e01c806386f7876c1161005b57806386f7876c146100ed5780638da5cb5b14610109578063d3e848f114610127578063f2fde38b1461014557610088565b8063062101971461008d5780632eb4a7ab146100a9578063715018a6146100c75780637cb64759146100d1575b600080fd5b6100a760048036038101906100a29190610c05565b610161565b005b6100b16101ad565b6040516100be9190610c4b565b60405180910390f35b6100cf6101b3565b005b6100eb60048036038101906100e69190610c92565b6101c7565b005b61010760048036038101906101029190610e06565b6101d9565b005b61011161051a565b60405161011e9190610f11565b60405180910390f35b61012f610543565b60405161013c9190610f11565b60405180910390f35b61015f600480360381019061015a9190610c05565b610569565b005b6101696105ec565b80600160006101000a81548173ffffffffffffffffffffffffffffffffffffffff021916908373ffffffffffffffffffffffffffffffffffffffff16021790555050565b60025481565b6101bb6105ec565b6101c5600061066a565b565b6101cf6105ec565b8060028190555050565b600073ffffffffffffffffffffffffffffffffffffffff16600160009054906101000a900473ffffffffffffffffffffffffffffffffffffffff1673ffffffffffffffffffffffffffffffffffffffff160361026a576040517f08c379a000000000000000000000000000000000000000000000000000000000815260040161026190610f89565b60405180910390fd5b6000801b600254036102b1576040517f08c379a00000000000000000000000000000000000000000000000000000000081526004016102a890610ff5565b60405180910390fd5b61034e600160009054906101000a900473ffffffffffffffffffffffffffffffffffffffff16338b85856040516020016102ee94939291906110bd565b604051602081830303815290604052805190602001208a8a8080601f016020809104026020016040519081016040528093929190818152602001838380828437600081840152601f19601f8201169050808301925050505050505061072e565b61038d576040517f08c379a000000000000000000000000000000000000000000000000000000000815260040161038490611144565b60405180910390fd5b600080878781019061039f91906111a2565b915091503373ffffffffffffffffffffffffffffffffffffffff168273ffffffffffffffffffffffffffffffffffffffff1614610411576040517f08c379a00000000000000000000000000000000000000000000000000000000081526004016104089061122e565b60405180910390fd5b808b1115610454576040517f08c379a000000000000000000000000000000000000000000000000000000000815260040161044b9061129a565b60405180910390fd5b60003360405160200161046791906112ba565b6040516020818303038152906040528051906020012090506104cd878780806020026020016040519081016040528093929190818152602001838360200280828437600081840152601f19601f82011690508083019250505050505050600254836107f6565b61050c576040517f08c379a000000000000000000000000000000000000000000000000000000000815260040161050390611321565b60405180910390fd5b505050505050505050505050565b60008060009054906101000a900473ffffffffffffffffffffffffffffffffffffffff16905090565b600160009054906101000a900473ffffffffffffffffffffffffffffffffffffffff1681565b6105716105ec565b600073ffffffffffffffffffffffffffffffffffffffff168173ffffffffffffffffffffffffffffffffffffffff16036105e0576040517f08c379a00000000000000000000000000000000000000000000000000000000081526004016105d7906113b3565b60405180910390fd5b6105e98161066a565b50565b6105f461080d565b73ffffffffffffffffffffffffffffffffffffffff1661061261051a565b73ffffffffffffffffffffffffffffffffffffffff1614610668576040517f08c379a000000000000000000000000000000000000000000000000000000000815260040161065f9061141f565b60405180910390fd5b565b60008060009054906101000a900473ffffffffffffffffffffffffffffffffffffffff169050816000806101000a81548173ffffffffffffffffffffffffffffffffffffffff021916908373ffffffffffffffffffffffffffffffffffffffff1602179055508173ffffffffffffffffffffffffffffffffffffffff168173ffffffffffffffffffffffffffffffffffffffff167f8be0079c531659141344cd1fd0a4f28419497f9722a3daafe3b4186f6b6457e060405160405180910390a35050565b60008073ffffffffffffffffffffffffffffffffffffffff168473ffffffffffffffffffffffffffffffffffffffff160361079e576040517f08c379a00000000000000000000000000000000000000000000000000000000081526004016107959061148b565b60405180910390fd5b60006107a984610815565b90508473ffffffffffffffffffffffffffffffffffffffff166107d5848361084590919063ffffffff16565b73ffffffffffffffffffffffffffffffffffffffff16149150509392505050565b600082610803858461086c565b1490509392505050565b600033905090565b6000816040516020016108289190611518565b604051602081830303815290604052805190602001209050919050565b600080600061085485856108c2565b9150915061086181610913565b819250505092915050565b60008082905060005b84518110156108b7576108a2828683815181106108955761089461153e565b5b6020026020010151610a79565b915080806108af9061159c565b915050610875565b508091505092915050565b60008060418351036109035760008060006020860151925060408601519150606086015160001a90506108f787828585610aa4565b9450945050505061090c565b60006002915091505b9250929050565b60006004811115610927576109266115e4565b5b81600481111561093a576109396115e4565b5b0315610a765760016004811115610954576109536115e4565b5b816004811115610967576109666115e4565b5b036109a7576040517f08c379a000000000000000000000000000000000000000000000000000000000815260040161099e9061165f565b60405180910390fd5b600260048111156109bb576109ba6115e4565b5b8160048111156109ce576109cd6115e4565b5b03610a0e576040517f08c379a0000000000000000000000000000000000000000000000000000000008152600401610a05906116cb565b60405180910390fd5b60036004811115610a2257610a216115e4565b5b816004811115610a3557610a346115e4565b5b03610a75576040517f08c379a0000000000000000000000000000000000000000000000000000000008152600401610a6c9061175d565b60405180910390fd5b5b50565b6000818310610a9157610a8c8284610b86565b610a9c565b610a9b8383610b86565b5b905092915050565b6000807f7fffffffffffffffffffffffffffffff5d576e7357a4501ddfe92f46681b20a08360001c1115610adf576000600391509150610b7d565b600060018787878760405160008152602001604052604051610b049493929190611799565b6020604051602081039080840390855afa158015610b26573d6000803e3d6000fd5b505050602060405103519050600073ffffffffffffffffffffffffffffffffffffffff168173ffffffffffffffffffffffffffffffffffffffff1603610b7457600060019250925050610b7d565b80600092509250505b94509492505050565b600082600052816020526040600020905092915050565b600080fd5b600080fd5b600073ffffffffffffffffffffffffffffffffffffffff82169050919050565b6000610bd282610ba7565b9050919050565b610be281610bc7565b8114610bed57600080fd5b50565b600081359050610bff81610bd9565b92915050565b600060208284031215610c1b57610c1a610b9d565b5b6000610c2984828501610bf0565b91505092915050565b6000819050919050565b610c4581610c32565b82525050565b6000602082019050610c606000830184610c3c565b92915050565b610c6f81610c32565b8114610c7a57600080fd5b50565b600081359050610c8c81610c66565b92915050565b600060208284031215610ca857610ca7610b9d565b5b6000610cb684828501610c7d565b91505092915050565b6000819050919050565b610cd281610cbf565b8114610cdd57600080fd5b50565b600081359050610cef81610cc9565b92915050565b600080fd5b600080fd5b600080fd5b60008083601f840112610d1a57610d19610cf5565b5b8235905067ffffffffffffffff811115610d3757610d36610cfa565b5b602083019150836001820283011115610d5357610d52610cff565b5b9250929050565b60008083601f840112610d7057610d6f610cf5565b5b8235905067ffffffffffffffff811115610d8d57610d8c610cfa565b5b602083019150836020820283011115610da957610da8610cff565b5b9250929050565b60008083601f840112610dc657610dc5610cf5565b5b8235905067ffffffffffffffff811115610de357610de2610cfa565b5b602083019150836001820283011115610dff57610dfe610cff565b5b9250929050565b600080600080600080600080600060a08a8c031215610e2857610e27610b9d565b5b6000610e368c828d01610ce0565b99505060208a013567ffffffffffffffff811115610e5757610e56610ba2565b5b610e638c828d01610d04565b985098505060408a013567ffffffffffffffff811115610e8657610e85610ba2565b5b610e928c828d01610d04565b965096505060608a013567ffffffffffffffff811115610eb557610eb4610ba2565b5b610ec18c828d01610d5a565b945094505060808a013567ffffffffffffffff811115610ee457610ee3610ba2565b5b610ef08c828d01610db0565b92509250509295985092959850929598565b610f0b81610bc7565b82525050565b6000602082019050610f266000830184610f02565b92915050565b600082825260208201905092915050565b7f4e6565642073797374656d206164647265737300000000000000000000000000600082015250565b6000610f73601383610f2c565b9150610f7e82610f3d565b602082019050919050565b60006020820190508181036000830152610fa281610f66565b9050919050565b7f4e656564206d65726b6c6520726f6f7400000000000000000000000000000000600082015250565b6000610fdf601083610f2c565b9150610fea82610fa9565b602082019050919050565b6000602082019050818103600083015261100e81610fd2565b9050919050565b60008160601b9050919050565b600061102d82611015565b9050919050565b600061103f82611022565b9050919050565b61105761105282610bc7565b611034565b82525050565b6000819050919050565b61107861107382610cbf565b61105d565b82525050565b600081905092915050565b82818337600083830152505050565b60006110a4838561107e565b93506110b1838584611089565b82840190509392505050565b60006110c98287611046565b6014820191506110d98286611067565b6020820191506110ea828486611098565b915081905095945050505050565b7f496e76616c6964205369676e6174757265000000000000000000000000000000600082015250565b600061112e601183610f2c565b9150611139826110f8565b602082019050919050565b6000602082019050818103600083015261115d81611121565b9050919050565b600061116f82610ba7565b9050919050565b61117f81611164565b811461118a57600080fd5b50565b60008135905061119c81611176565b92915050565b600080604083850312156111b9576111b8610b9d565b5b60006111c78582860161118d565b92505060206111d885828601610ce0565b9150509250929050565b7f4261642044617461000000000000000000000000000000000000000000000000600082015250565b6000611218600883610f2c565b9150611223826111e2565b602082019050919050565b600060208201905081810360008301526112478161120b565b9050919050565b7f43616e2774206d696e742074686174206d616e79000000000000000000000000600082015250565b6000611284601483610f2c565b915061128f8261124e565b602082019050919050565b600060208201905081810360008301526112b381611277565b9050919050565b60006112c68284611046565b60148201915081905092915050565b7f4e6f74204f6e20416c6c6f776c69737400000000000000000000000000000000600082015250565b600061130b601083610f2c565b9150611316826112d5565b602082019050919050565b6000602082019050818103600083015261133a816112fe565b9050919050565b7f4f776e61626c653a206e6577206f776e657220697320746865207a65726f206160008201527f6464726573730000000000000000000000000000000000000000000000000000602082015250565b600061139d602683610f2c565b91506113a882611341565b604082019050919050565b600060208201905081810360008301526113cc81611390565b9050919050565b7f4f776e61626c653a2063616c6c6572206973206e6f7420746865206f776e6572600082015250565b6000611409602083610f2c565b9150611414826113d3565b602082019050919050565b60006020820190508181036000830152611438816113fc565b9050919050565b7f4d697373696e672053797374656d204164647265737300000000000000000000600082015250565b6000611475601683610f2c565b91506114808261143f565b602082019050919050565b600060208201905081810360008301526114a481611468565b9050919050565b7f19457468657265756d205369676e6564204d6573736167653a0a333200000000600082015250565b60006114e1601c8361107e565b91506114ec826114ab565b601c82019050919050565b6000819050919050565b61151261150d82610c32565b6114f7565b82525050565b6000611523826114d4565b915061152f8284611501565b60208201915081905092915050565b7f4e487b7100000000000000000000000000000000000000000000000000000000600052603260045260246000fd5b7f4e487b7100000000000000000000000000000000000000000000000000000000600052601160045260246000fd5b60006115a782610cbf565b91507fffffffffffffffffffffffffffffffffffffffffffffffffffffffffffffffff82036115d9576115d861156d565b5b600182019050919050565b7f4e487b7100000000000000000000000000000000000000000000000000000000600052602160045260246000fd5b7f45434453413a20696e76616c6964207369676e61747572650000000000000000600082015250565b6000611649601883610f2c565b915061165482611613565b602082019050919050565b600060208201905081810360008301526116788161163c565b9050919050565b7f45434453413a20696e76616c6964207369676e6174757265206c656e67746800600082015250565b60006116b5601f83610f2c565b91506116c08261167f565b602082019050919050565b600060208201905081810360008301526116e4816116a8565b9050919050565b7f45434453413a20696e76616c6964207369676e6174757265202773272076616c60008201527f7565000000000000000000000000000000000000000000000000000000000000602082015250565b6000611747602283610f2c565b9150611752826116eb565b604082019050919050565b600060208201905081810360008301526117768161173a565b9050919050565b600060ff82169050919050565b6117938161177d565b82525050565b60006080820190506117ae6000830187610c3c565b6117bb602083018661178a565b6117c86040830185610c3c565b6117d56060830184610c3c565b9594505050505056fea264697066735822122047560f789c84fd9538646da123a0df833cab5d4ba2920f9d1a01bd6acb44609264736f6c63430008110033",
  "linkReferences": {},
  "deployedLinkReferences": {}
}