{"contracts/BigData.sol":{"BigData":{"abi":[{"anonymous":false,"inputs":[{"indexed":true,"internalType":"address","name":"previousOwner","type":"address"},{"indexed":true,"internalType":"address","name":"newOwner","type":"address"}],"name":"OwnershipTransferred","type":"event"},{"inputs":[],"name":"merkleRoot","outputs":[{"internalType":"bytes32","name":"","type":"bytes32"}],"stateMutability":"view","type":"function"},{"inputs":[],"name":"owner","outputs":[{"internalType":"address","name":"","type":"address"}],"stateMutability":"view","type":"function"},{"inputs":[{"internalType":"uint256","name":"_amount","type":"uint256"},{"internalType":"bytes","name":"_signature","type":"bytes"},{"internalType":"bytes","name":"_data","type":"bytes"},{"internalType":"bytes32[]","name":"_merkleProof","type":"bytes32[]"},{"internalType":"string","name":"_nonce","type":"string"}],"name":"purchase","outputs":[],"stateMutability":"nonpayable","type":"function"},{"inputs":[],"name":"renounceOwnership","outputs":[],"stateMutability":"nonpayable","type":"function"},{"inputs":[{"internalType":"bytes32","name":"_merkleRoot","type":"bytes32"}],"name":"setMerkleRoot","outputs":[],"stateMutability":"nonpayable","type":"function"},{"inputs":[{"internalType":"address","name":"_address","type":"address"}],"name":"setSystemAddress","outputs":[],"stateMutability":"nonpayable","type":"function"},{"inputs":[],"name":"systemAddress","outputs":[{"internalType":"address","name":"","type":"address"}],"stateMutability":"view","type":"function"},{"inputs":[{"internalType":"address","name":"newOwner","type":"address"}],"name":"transferOwnership","outputs":[],"stateMutability":"nonpayable","type":"function"}],"evm":{"bytecode":{"linkReferences":{},"object":"608060405234801561001057600080fd5b5061002d61002261003260201b60201c565b61003a60201b60201c565b6100fe565b600033905090565b60008060009054906101000a900473ffffffffffffffffffffffffffffffffffffffff169050816000806101000a81548173ffffffffffffffffffffffffffffffffffffffff021916908373ffffffffffffffffffffffffffffffffffffffff1602179055508173ffffffffffffffffffffffffffffffffffffffff168173ffffffffffffffffffffffffffffffffffffffff167f8be0079c531659141344cd1fd0a4f28419497f9722a3daafe3b4186f6b6457e060405160405180910390a35050565b6118148061010d6000396000f3fe608060405234801561001057600080fd5b50600436106100885760003560e01c806386f7876c1161005b57806386f7876c146100ed5780638da5cb5b14610109578063d3e848f114610127578063f2fde38b1461014557610088565b8063062101971461008d5780632eb4a7ab146100a9578063715018a6146100c75780637cb64759146100d1575b600080fd5b6100a760048036038101906100a29190610c05565b610161565b005b6100b16101ad565b6040516100be9190610c4b565b60405180910390f35b6100cf6101b3565b005b6100eb60048036038101906100e69190610c92565b6101c7565b005b61010760048036038101906101029190610e06565b6101d9565b005b61011161051a565b60405161011e9190610f11565b60405180910390f35b61012f610543565b60405161013c9190610f11565b60405180910390f35b61015f600480360381019061015a9190610c05565b610569565b005b6101696105ec565b80600160006101000a81548173ffffffffffffffffffffffffffffffffffffffff021916908373ffffffffffffffffffffffffffffffffffffffff16021790555050565b60025481565b6101bb6105ec565b6101c5600061066a565b565b6101cf6105ec565b8060028190555050565b600073ffffffffffffffffffffffffffffffffffffffff16600160009054906101000a900473ffffffffffffffffffffffffffffffffffffffff1673ffffffffffffffffffffffffffffffffffffffff160361026a576040517f08c379a000000000000000000000000000000000000000000000000000000000815260040161026190610f89565b60405180910390fd5b6000801b600254036102b1576040517f08c379a00000000000000000000000000000000000000000000000000000000081526004016102a890610ff5565b60405180910390fd5b61034e600160009054906101000a900473ffffffffffffffffffffffffffffffffffffffff16338b85856040516020016102ee94939291906110bd565b604051602081830303815290604052805190602001208a8a8080601f016020809104026020016040519081016040528093929190818152602001838380828437600081840152601f19601f8201169050808301925050505050505061072e565b61038d576040517f08c379a000000000000000000000000000000000000000000000000000000000815260040161038490611144565b60405180910390fd5b600080878781019061039f91906111a2565b915091503373ffffffffffffffffffffffffffffffffffffffff168273ffffffffffffffffffffffffffffffffffffffff1614610411576040517f08c379a00000000000000000000000000000000000000000000000000000000081526004016104089061122e565b60405180910390fd5b808b1115610454576040517f08c379a000000000000000000000000000000000000000000000000000000000815260040161044b9061129a565b60405180910390fd5b60003360405160200161046791906112ba565b6040516020818303038152906040528051906020012090506104cd878780806020026020016040519081016040528093929190818152602001838360200280828437600081840152601f19601f82011690508083019250505050505050600254836107f6565b61050c576040517f08c379a000000000000000000000000000000000000000000000000000000000815260040161050390611321565b60405180910390fd5b505050505050505050505050565b60008060009054906101000a900473ffffffffffffffffffffffffffffffffffffffff16905090565b600160009054906101000a900473ffffffffffffffffffffffffffffffffffffffff1681565b6105716105ec565b600073ffffffffffffffffffffffffffffffffffffffff168173ffffffffffffffffffffffffffffffffffffffff16036105e0576040517f08c379a00000000000000000000000000000000000000000000000000000000081526004016105d7906113b3565b60405180910390fd5b6105e98161066a565b50565b6105f461080d565b73ffffffffffffffffffffffffffffffffffffffff1661061261051a565b73ffffffffffffffffffffffffffffffffffffffff1614610668576040517f08c379a000000000000000000000000000000000000000000000000000000000815260040161065f9061141f565b60405180910390fd5b565b60008060009054906101000a900473ffffffffffffffffffffffffffffffffffffffff169050816000806101000a81548173ffffffffffffffffffffffffffffffffffffffff021916908373ffffffffffffffffffffffffffffffffffffffff1602179055508173ffffffffffffffffffffffffffffffffffffffff168173ffffffffffffffffffffffffffffffffffffffff167f8be0079c531659141344cd1fd0a4f28419497f9722a3daafe3b4186f6b6457e060405160405180910390a35050565b60008073ffffffffffffffffffffffffffffffffffffffff168473ffffffffffffffffffffffffffffffffffffffff160361079e576040517f08c379a00000000000000000000000000000000000000000000000000000000081526004016107959061148b565b60405180910390fd5b60006107a984610815565b90508473ffffffffffffffffffffffffffffffffffffffff166107d5848361084590919063ffffffff16565b73ffffffffffffffffffffffffffffffffffffffff16149150509392505050565b600082610803858461086c565b1490509392505050565b600033905090565b6000816040516020016108289190611518565b604051602081830303815290604052805190602001209050919050565b600080600061085485856108c2565b9150915061086181610913565b819250505092915050565b60008082905060005b84518110156108b7576108a2828683815181106108955761089461153e565b5b6020026020010151610a79565b915080806108af9061159c565b915050610875565b508091505092915050565b60008060418351036109035760008060006020860151925060408601519150606086015160001a90506108f787828585610aa4565b9450945050505061090c565b60006002915091505b9250929050565b60006004811115610927576109266115e4565b5b81600481111561093a576109396115e4565b5b0315610a765760016004811115610954576109536115e4565b5b816004811115610967576109666115e4565b5b036109a7576040517f08c379a000000000000000000000000000000000000000000000000000000000815260040161099e9061165f565b60405180910390fd5b600260048111156109bb576109ba6115e4565b5b8160048111156109ce576109cd6115e4565b5b03610a0e576040517f08c379a0000000000000000000000000000000000000000000000000000000008152600401610a05906116cb565b60405180910390fd5b60036004811115610a2257610a216115e4565b5b816004811115610a3557610a346115e4565b5b03610a75576040517f08c379a0000000000000000000000000000000000000000000000000000000008152600401610a6c9061175d565b60405180910390fd5b5b50565b6000818310610a9157610a8c8284610b86565b610a9c565b610a9b8383610b86565b5b905092915050565b6000807f7fffffffffffffffffffffffffffffff5d576e7357a4501ddfe92f46681b20a08360001c1115610adf576000600391509150610b7d565b600060018787878760405160008152602001604052604051610b049493929190611799565b6020604051602081039080840390855afa158015610b26573d6000803e3d6000fd5b505050602060405103519050600073ffffffffffffffffffffffffffffffffffffffff168173ffffffffffffffffffffffffffffffffffffffff1603610b7457600060019250925050610b7d565b80600092509250505b94509492505050565b600082600052816020526040600020905092915050565b600080fd5b600080fd5b600073ffffffffffffffffffffffffffffffffffffffff82169050919050565b6000610bd282610ba7565b9050919050565b610be281610bc7565b8114610bed57600080fd5b50565b600081359050610bff81610bd9565b92915050565b600060208284031215610c1b57610c1a610b9d565b5b6000610c2984828501610bf0565b91505092915050565b6000819050919050565b610c4581610c32565b82525050565b6000602082019050610c606000830184610c3c565b92915050565b610c6f81610c32565b8114610c7a57600080fd5b50565b600081359050610c8c81610c66565b92915050565b600060208284031215610ca857610ca7610b9d565b5b6000610cb684828501610c7d565b91505092915050565b6000819050919050565b610cd281610cbf565b8114610cdd57600080fd5b50565b600081359050610cef81610cc9565b92915050565b600080fd5b600080fd5b600080fd5b60008083601f840112610d1a57610d19610cf5565b5b8235905067ffffffffffffffff811115610d3757610d36610cfa565b5b602083019150836001820283011115610d5357610d52610cff565b5b9250929050565b60008083601f840112610d7057610d6f610cf5565b5b8235905067ffffffffffffffff811115610d8d57610d8c610cfa565b5b602083019150836020820283011115610da957610da8610cff565b5b9250929050565b60008083601f840112610dc657610dc5610cf5565b5b8235905067ffffffffffffffff811115610de357610de2610cfa565b5b602083019150836001820283011115610dff57610dfe610cff565b5b9250929050565b600080600080600080600080600060a08a8c031215610e2857610e27610b9d565b5b6000610e368c828d01610ce0565b99505060208a013567ffffffffffffffff811115610e5757610e56610ba2565b5b610e638c828d01610d04565b985098505060408a013567ffffffffffffffff811115610e8657610e85610ba2565b5b610e928c828d01610d04565b965096505060608a013567ffffffffffffffff811115610eb557610eb4610ba2565b5b610ec18c828d01610d5a565b945094505060808a013567ffffffffffffffff811115610ee457610ee3610ba2565b5b610ef08c828d01610db0565b92509250509295985092959850929598565b610f0b81610bc7565b82525050565b6000602082019050610f266000830184610f02565b92915050565b600082825260208201905092915050565b7f4e6565642073797374656d206164647265737300000000000000000000000000600082015250565b6000610f73601383610f2c565b9150610f7e82610f3d565b602082019050919050565b60006020820190508181036000830152610fa281610f66565b9050919050565b7f4e656564206d65726b6c6520726f6f7400000000000000000000000000000000600082015250565b6000610fdf601083610f2c565b9150610fea82610fa9565b602082019050919050565b6000602082019050818103600083015261100e81610fd2565b9050919050565b60008160601b9050919050565b600061102d82611015565b9050919050565b600061103f82611022565b9050919050565b61105761105282610bc7565b611034565b82525050565b6000819050919050565b61107861107382610cbf565b61105d565b82525050565b600081905092915050565b82818337600083830152505050565b60006110a4838561107e565b93506110b1838584611089565b82840190509392505050565b60006110c98287611046565b6014820191506110d98286611067565b6020820191506110ea828486611098565b915081905095945050505050565b7f496e76616c6964205369676e6174757265000000000000000000000000000000600082015250565b600061112e601183610f2c565b9150611139826110f8565b602082019050919050565b6000602082019050818103600083015261115d81611121565b9050919050565b600061116f82610ba7565b9050919050565b61117f81611164565b811461118a57600080fd5b50565b60008135905061119c81611176565b92915050565b600080604083850312156111b9576111b8610b9d565b5b60006111c78582860161118d565b92505060206111d885828601610ce0565b9150509250929050565b7f4261642044617461000000000000000000000000000000000000000000000000600082015250565b6000611218600883610f2c565b9150611223826111e2565b602082019050919050565b600060208201905081810360008301526112478161120b565b9050919050565b7f43616e2774206d696e742074686174206d616e79000000000000000000000000600082015250565b6000611284601483610f2c565b915061128f8261124e565b602082019050919050565b600060208201905081810360008301526112b381611277565b9050919050565b60006112c68284611046565b60148201915081905092915050565b7f4e6f74204f6e20416c6c6f776c69737400000000000000000000000000000000600082015250565b600061130b601083610f2c565b9150611316826112d5565b602082019050919050565b6000602082019050818103600083015261133a816112fe565b9050919050565b7f4f776e61626c653a206e6577206f776e657220697320746865207a65726f206160008201527f6464726573730000000000000000000000000000000000000000000000000000602082015250565b600061139d602683610f2c565b91506113a882611341565b604082019050919050565b600060208201905081810360008301526113cc81611390565b9050919050565b7f4f776e61626c653a2063616c6c6572206973206e6f7420746865206f776e6572600082015250565b6000611409602083610f2c565b9150611414826113d3565b602082019050919050565b60006020820190508181036000830152611438816113fc565b9050919050565b7f4d697373696e672053797374656d204164647265737300000000000000000000600082015250565b6000611475601683610f2c565b91506114808261143f565b602082019050919050565b600060208201905081810360008301526114a481611468565b9050919050565b7f19457468657265756d205369676e6564204d6573736167653a0a333200000000600082015250565b60006114e1601c8361107e565b91506114ec826114ab565b601c82019050919050565b6000819050919050565b61151261150d82610c32565b6114f7565b82525050565b6000611523826114d4565b915061152f8284611501565b60208201915081905092915050565b7f4e487b7100000000000000000000000000000000000000000000000000000000600052603260045260246000fd5b7f4e487b7100000000000000000000000000000000000000000000000000000000600052601160045260246000fd5b60006115a782610cbf565b91507fffffffffffffffffffffffffffffffffffffffffffffffffffffffffffffffff82036115d9576115d861156d565b5b600182019050919050565b7f4e487b7100000000000000000000000000000000000000000000000000000000600052602160045260246000fd5b7f45434453413a20696e76616c6964207369676e61747572650000000000000000600082015250565b6000611649601883610f2c565b915061165482611613565b602082019050919050565b600060208201905081810360008301526116788161163c565b9050919050565b7f45434453413a20696e76616c6964207369676e6174757265206c656e67746800600082015250565b60006116b5601f83610f2c565b91506116c08261167f565b602082019050919050565b600060208201905081810360008301526116e4816116a8565b9050919050565b7f45434453413a20696e76616c6964207369676e6174757265202773272076616c60008201527f7565000000000000000000000000000000000000000000000000000000000000602082015250565b6000611747602283610f2c565b9150611752826116eb565b604082019050919050565b600060208201905081810360008301526117768161173a565b9050919050565b600060ff82169050919050565b6117938161177d565b82525050565b60006080820190506117ae6000830187610c3c565b6117bb602083018661178a565b6117c86040830185610c3c565b6117d56060830184610c3c565b9594505050505056fea264697066735822122047560f789c84fd9538646da123a0df833cab5d4ba2920f9d1a01bd6acb44609264736f6c63430008110033","opcodes":"PUSH1 0x80 PUSH1 0x40 MSTORE CALLVALUE DUP1 ISZERO PUSH2 0x10 JUMPI PUSH1 0x0 DUP1 REVERT JUMPDEST POP PUSH2 0x2D PUSH2 0x22 PUSH2 0x32 PUSH1 0x20 SHL PUSH1 0x20 SHR JUMP JUMPDEST PUSH2 0x3A PUSH1 0x20 SHL PUSH1 0x20 SHR JUMP JUMPDEST PUSH2 0xFE JUMP JUMPDEST PUSH1 0x0 CALLER SWAP1 POP SWAP1 JUMP JUMPDEST PUSH1 0x0 DUP1 PUSH1 0x0 SWAP1 SLOAD SWAP1 PUSH2 0x100 EXP SWAP1 DIV PUSH20 0xFFFFFFFFFFFFFFFFFFFFFFFFFFFFFFFFFFFFFFFF AND SWAP1 POP DUP2 PUSH1 0x0 DUP1 PUSH2 0x100 EXP DUP2 SLOAD DUP2 PUSH20 0xFFFFFFFFFFFFFFFFFFFFFFFFFFFFFFFFFFFFFFFF MUL NOT AND SWAP1 DUP4 PUSH20 0xFFFFFFFFFFFFFFFFFFFFFFFFFFFFFFFFFFFFFFFF AND MUL OR SWAP1 SSTORE POP DUP2 PUSH20 0xFFFFFFFFFFFFFFFFFFFFFFFFFFFFFFFFFFFFFFFF AND DUP2 PUSH20 0xFFFFFFFFFFFFFFFFFFFFFFFFFFFFFFFFFFFFFFFF AND PUSH32 0x8BE0079C531659141344CD1FD0A4F28419497F9722A3DAAFE3B4186F6B6457E0 PUSH1 0x40 MLOAD PUSH1 0x40 MLOAD DUP1 SWAP2 SUB SWAP1 LOG3 POP POP JUMP JUMPDEST PUSH2 0x1814 DUP1 PUSH2 0x10D PUSH1 0x0 CODECOPY PUSH1 0x0 RETURN INVALID PUSH1 0x80 PUSH1 0x40 MSTORE CALLVALUE DUP1 ISZERO PUSH2 0x10 JUMPI PUSH1 0x0 DUP1 REVERT JUMPDEST POP PUSH1 0x4 CALLDATASIZE LT PUSH2 0x88 JUMPI PUSH1 0x0 CALLDATALOAD PUSH1 0xE0 SHR DUP1 PUSH4 0x86F7876C GT PUSH2 0x5B JUMPI DUP1 PUSH4 0x86F7876C EQ PUSH2 0xED JUMPI DUP1 PUSH4 0x8DA5CB5B EQ PUSH2 0x109 JUMPI DUP1 PUSH4 0xD3E848F1 EQ PUSH2 0x127 JUMPI DUP1 PUSH4 0xF2FDE38B EQ PUSH2 0x145 JUMPI PUSH2 0x88 JUMP JUMPDEST DUP1 PUSH4 0x6210197 EQ PUSH2 0x8D JUMPI DUP1 PUSH4 0x2EB4A7AB EQ PUSH2 0xA9 JUMPI DUP1 PUSH4 0x715018A6 EQ PUSH2 0xC7 JUMPI DUP1 PUSH4 0x7CB64759 EQ PUSH2 0xD1 JUMPI JUMPDEST PUSH1 0x0 DUP1 REVERT JUMPDEST PUSH2 0xA7 PUSH1 0x4 DUP1 CALLDATASIZE SUB DUP2 ADD SWAP1 PUSH2 0xA2 SWAP2 SWAP1 PUSH2 0xC05 JUMP JUMPDEST PUSH2 0x161 JUMP JUMPDEST STOP JUMPDEST PUSH2 0xB1 PUSH2 0x1AD JUMP JUMPDEST PUSH1 0x40 MLOAD PUSH2 0xBE SWAP2 SWAP1 PUSH2 0xC4B JUMP JUMPDEST PUSH1 0x40 MLOAD DUP1 SWAP2 SUB SWAP1 RETURN JUMPDEST PUSH2 0xCF PUSH2 0x1B3 JUMP JUMPDEST STOP JUMPDEST PUSH2 0xEB PUSH1 0x4 DUP1 CALLDATASIZE SUB DUP2 ADD SWAP1 PUSH2 0xE6 SWAP2 SWAP1 PUSH2 0xC92 JUMP JUMPDEST PUSH2 0x1C7 JUMP JUMPDEST STOP JUMPDEST PUSH2 0x107 PUSH1 0x4 DUP1 CALLDATASIZE SUB DUP2 ADD SWAP1 PUSH2 0x102 SWAP2 SWAP1 PUSH2 0xE06 JUMP JUMPDEST PUSH2 0x1D9 JUMP JUMPDEST STOP JUMPDEST PUSH2 0x111 PUSH2 0x51A JUMP JUMPDEST PUSH1 0x40 MLOAD PUSH2 0x11E SWAP2 SWAP1 PUSH2 0xF11 JUMP JUMPDEST PUSH1 0x40 MLOAD DUP1 SWAP2 SUB SWAP1 RETURN JUMPDEST PUSH2 0x12F PUSH2 0x543 JUMP JUMPDEST PUSH1 0x40 MLOAD PUSH2 0x13C SWAP2 SWAP1 PUSH2 0xF11 JUMP JUMPDEST PUSH1 0x40 MLOAD DUP1 SWAP2 SUB SWAP1 RETURN JUMPDEST PUSH2 0x15F PUSH1 0x4 DUP1 CALLDATASIZE SUB DUP2 ADD SWAP1 PUSH2 0x15A SWAP2 SWAP1 PUSH2 0xC05 JUMP JUMPDEST PUSH2 0x569 JUMP JUMPDEST STOP JUMPDEST PUSH2 0x169 PUSH2 0x5EC JUMP JUMPDEST DUP1 PUSH1 0x1 PUSH1 0x0 PUSH2 0x100 EXP DUP2 SLOAD DUP2 PUSH20 0xFFFFFFFFFFFFFFFFFFFFFFFFFFFFFFFFFFFFFFFF MUL NOT AND SWAP1 DUP4 PUSH20 0xFFFFFFFFFFFFFFFFFFFFFFFFFFFFFFFFFFFFFFFF AND MUL OR SWAP1 SSTORE POP POP JUMP JUMPDEST PUSH1 0x2 SLOAD DUP2 JUMP JUMPDEST PUSH2 0x1BB PUSH2 0x5EC JUMP JUMPDEST PUSH2 0x1C5 PUSH1 0x0 PUSH2 0x66A JUMP JUMPDEST JUMP JUMPDEST PUSH2 0x1CF PUSH2 0x5EC JUMP JUMPDEST DUP1 PUSH1 0x2 DUP2 SWAP1 SSTORE POP POP JUMP JUMPDEST PUSH1 0x0 PUSH20 0xFFFFFFFFFFFFFFFFFFFFFFFFFFFFFFFFFFFFFFFF AND PUSH1 0x1 PUSH1 0x0 SWAP1 SLOAD SWAP1 PUSH2 0x100 EXP SWAP1 DIV PUSH20 0xFFFFFFFFFFFFFFFFFFFFFFFFFFFFFFFFFFFFFFFF AND PUSH20 0xFFFFFFFFFFFFFFFFFFFFFFFFFFFFFFFFFFFFFFFF AND SUB PUSH2 0x26A JUMPI PUSH1 0x40 MLOAD PUSH32 0x8C379A000000000000000000000000000000000000000000000000000000000 DUP2 MSTORE PUSH1 0x4 ADD PUSH2 0x261 SWAP1 PUSH2 0xF89 JUMP JUMPDEST PUSH1 0x40 MLOAD DUP1 SWAP2 SUB SWAP1 REVERT JUMPDEST PUSH1 0x0 DUP1 SHL PUSH1 0x2 SLOAD SUB PUSH2 0x2B1 JUMPI PUSH1 0x40 MLOAD PUSH32 0x8C379A000000000000000000000000000000000000000000000000000000000 DUP2 MSTORE PUSH1 0x4 ADD PUSH2 0x2A8 SWAP1 PUSH2 0xFF5 JUMP JUMPDEST PUSH1 0x40 MLOAD DUP1 SWAP2 SUB SWAP1 REVERT JUMPDEST PUSH2 0x34E PUSH1 0x1 PUSH1 0x0 SWAP1 SLOAD SWAP1 PUSH2 0x100 EXP SWAP1 DIV PUSH20 0xFFFFFFFFFFFFFFFFFFFFFFFFFFFFFFFFFFFFFFFF AND CALLER DUP12 DUP6 DUP6 PUSH1 0x40 MLOAD PUSH1 0x20 ADD PUSH2 0x2EE SWAP5 SWAP4 SWAP3 SWAP2 SWAP1 PUSH2 0x10BD JUMP JUMPDEST PUSH1 0x40 MLOAD PUSH1 0x20 DUP2 DUP4 SUB SUB DUP2 MSTORE SWAP1 PUSH1 0x40 MSTORE DUP1 MLOAD SWAP1 PUSH1 0x20 ADD KECCAK256 DUP11 DUP11 DUP1 DUP1 PUSH1 0x1F ADD PUSH1 0x20 DUP1 SWAP2 DIV MUL PUSH1 0x20 ADD PUSH1 0x40 MLOAD SWAP1 DUP2 ADD PUSH1 0x40 MSTORE DUP1 SWAP4 SWAP3 SWAP2 SWAP1 DUP2 DUP2 MSTORE PUSH1 0x20 ADD DUP4 DUP4 DUP1 DUP3 DUP5 CALLDATACOPY PUSH1 0x0 DUP2 DUP5 ADD MSTORE PUSH1 0x1F NOT PUSH1 0x1F DUP3 ADD AND SWAP1 POP DUP1 DUP4 ADD SWAP3 POP POP POP POP POP POP POP PUSH2 0x72E JUMP JUMPDEST PUSH2 0x38D JUMPI PUSH1 0x40 MLOAD PUSH32 0x8C379A000000000000000000000000000000000000000000000000000000000 DUP2 MSTORE PUSH1 0x4 ADD PUSH2 0x384 SWAP1 PUSH2 0x1144 JUMP JUMPDEST PUSH1 0x40 MLOAD DUP1 SWAP2 SUB SWAP1 REVERT JUMPDEST PUSH1 0x0 DUP1 DUP8 DUP8 DUP2 ADD SWAP1 PUSH2 0x39F SWAP2 SWAP1 PUSH2 0x11A2 JUMP JUMPDEST SWAP2 POP SWAP2 POP CALLER PUSH20 0xFFFFFFFFFFFFFFFFFFFFFFFFFFFFFFFFFFFFFFFF AND DUP3 PUSH20 0xFFFFFFFFFFFFFFFFFFFFFFFFFFFFFFFFFFFFFFFF AND EQ PUSH2 0x411 JUMPI PUSH1 0x40 MLOAD PUSH32 0x8C379A000000000000000000000000000000000000000000000000000000000 DUP2 MSTORE PUSH1 0x4 ADD PUSH2 0x408 SWAP1 PUSH2 0x122E JUMP JUMPDEST PUSH1 0x40 MLOAD DUP1 SWAP2 SUB SWAP1 REVERT JUMPDEST DUP1 DUP12 GT ISZERO PUSH2 0x454 JUMPI PUSH1 0x40 MLOAD PUSH32 0x8C379A000000000000000000000000000000000000000000000000000000000 DUP2 MSTORE PUSH1 0x4 ADD PUSH2 0x44B SWAP1 PUSH2 0x129A JUMP JUMPDEST PUSH1 0x40 MLOAD DUP1 SWAP2 SUB SWAP1 REVERT JUMPDEST PUSH1 0x0 CALLER PUSH1 0x40 MLOAD PUSH1 0x20 ADD PUSH2 0x467 SWAP2 SWAP1 PUSH2 0x12BA JUMP JUMPDEST PUSH1 0x40 MLOAD PUSH1 0x20 DUP2 DUP4 SUB SUB DUP2 MSTORE SWAP1 PUSH1 0x40 MSTORE DUP1 MLOAD SWAP1 PUSH1 0x20 ADD KECCAK256 SWAP1 POP PUSH2 0x4CD DUP8 DUP8 DUP1 DUP1 PUSH1 0x20 MUL PUSH1 0x20 ADD PUSH1 0x40 MLOAD SWAP1 DUP2 ADD PUSH1 0x40 MSTORE DUP1 SWAP4 SWAP3 SWAP2 SWAP1 DUP2 DUP2 MSTORE PUSH1 0x20 ADD DUP4 DUP4 PUSH1 0x20 MUL DUP1 DUP3 DUP5 CALLDATACOPY PUSH1 0x0 DUP2 DUP5 ADD MSTORE PUSH1 0x1F NOT PUSH1 0x1F DUP3 ADD AND SWAP1 POP DUP1 DUP4 ADD SWAP3 POP POP POP POP POP POP POP PUSH1 0x2 SLOAD DUP4 PUSH2 0x7F6 JUMP JUMPDEST PUSH2 0x50C JUMPI PUSH1 0x40 MLOAD PUSH32 0x8C379A000000000000000000000000000000000000000000000000000000000 DUP2 MSTORE PUSH1 0x4 ADD PUSH2 0x503 SWAP1 PUSH2 0x1321 JUMP JUMPDEST PUSH1 0x40 MLOAD DUP1 SWAP2 SUB SWAP1 REVERT JUMPDEST POP POP POP POP POP POP POP POP POP POP POP POP JUMP JUMPDEST PUSH1 0x0 DUP1 PUSH1 0x0 SWAP1 SLOAD SWAP1 PUSH2 0x100 EXP SWAP1 DIV PUSH20 0xFFFFFFFFFFFFFFFFFFFFFFFFFFFFFFFFFFFFFFFF AND SWAP1 POP SWAP1 JUMP JUMPDEST PUSH1 0x1 PUSH1 0x0 SWAP1 SLOAD SWAP1 PUSH2 0x100 EXP SWAP1 DIV PUSH20 0xFFFFFFFFFFFFFFFFFFFFFFFFFFFFFFFFFFFFFFFF AND DUP2 JUMP JUMPDEST PUSH2 0x571 PUSH2 0x5EC JUMP JUMPDEST PUSH1 0x0 PUSH20 0xFFFFFFFFFFFFFFFFFFFFFFFFFFFFFFFFFFFFFFFF AND DUP2 PUSH20 0xFFFFFFFFFFFFFFFFFFFFFFFFFFFFFFFFFFFFFFFF AND SUB PUSH2 0x5E0 JUMPI PUSH1 0x40 MLOAD PUSH32 0x8C379A000000000000000000000000000000000000000000000000000000000 DUP2 MSTORE PUSH1 0x4 ADD PUSH2 0x5D7 SWAP1 PUSH2 0x13B3 JUMP JUMPDEST PUSH1 0x40 MLOAD DUP1 SWAP2 SUB SWAP1 REVERT JUMPDEST PUSH2 0x5E9 DUP2 PUSH2 0x66A JUMP JUMPDEST POP JUMP JUMPDEST PUSH2 0x5F4 PUSH2 0x80D JUMP JUMPDEST PUSH20 0xFFFFFFFFFFFFFFFFFFFFFFFFFFFFFFFFFFFFFFFF AND PUSH2 0x612 PUSH2 0x51A JUMP JUMPDEST PUSH20 0xFFFFFFFFFFFFFFFFFFFFFFFFFFFFFFFFFFFFFFFF AND EQ PUSH2 0x668 JUMPI PUSH1 0x40 MLOAD PUSH32 0x8C379A000000000000000000000000000000000000000000000000000000000 DUP2 MSTORE PUSH1 0x4 ADD PUSH2 0x65F SWAP1 PUSH2 0x141F JUMP JUMPDEST PUSH1 0x40 MLOAD DUP1 SWAP2 SUB SWAP1 REVERT JUMPDEST JUMP JUMPDEST PUSH1 0x0 DUP1 PUSH1 0x0 SWAP1 SLOAD SWAP1 PUSH2 0x100 EXP SWAP1 DIV PUSH20 0xFFFFFFFFFFFFFFFFFFFFFFFFFFFFFFFFFFFFFFFF AND SWAP1 POP DUP2 PUSH1 0x0 DUP1 PUSH2 0x100 EXP DUP2 SLOAD DUP2 PUSH20 0xFFFFFFFFFFFFFFFFFFFFFFFFFFFFFFFFFFFFFFFF MUL NOT AND SWAP1 DUP4 PUSH20 0xFFFFFFFFFFFFFFFFFFFFFFFFFFFFFFFFFFFFFFFF AND MUL OR SWAP1 SSTORE POP DUP2 PUSH20 0xFFFFFFFFFFFFFFFFFFFFFFFFFFFFFFFFFFFFFFFF AND DUP2 PUSH20 0xFFFFFFFFFFFFFFFFFFFFFFFFFFFFFFFFFFFFFFFF AND PUSH32 0x8BE0079C531659141344CD1FD0A4F28419497F9722A3DAAFE3B4186F6B6457E0 PUSH1 0x40 MLOAD PUSH1 0x40 MLOAD DUP1 SWAP2 SUB SWAP1 LOG3 POP POP JUMP JUMPDEST PUSH1 0x0 DUP1 PUSH20 0xFFFFFFFFFFFFFFFFFFFFFFFFFFFFFFFFFFFFFFFF AND DUP5 PUSH20 0xFFFFFFFFFFFFFFFFFFFFFFFFFFFFFFFFFFFFFFFF AND SUB PUSH2 0x79E JUMPI PUSH1 0x40 MLOAD PUSH32 0x8C379A000000000000000000000000000000000000000000000000000000000 DUP2 MSTORE PUSH1 0x4 ADD PUSH2 0x795 SWAP1 PUSH2 0x148B JUMP JUMPDEST PUSH1 0x40 MLOAD DUP1 SWAP2 SUB SWAP1 REVERT JUMPDEST PUSH1 0x0 PUSH2 0x7A9 DUP5 PUSH2 0x815 JUMP JUMPDEST SWAP1 POP DUP5 PUSH20 0xFFFFFFFFFFFFFFFFFFFFFFFFFFFFFFFFFFFFFFFF AND PUSH2 0x7D5 DUP5 DUP4 PUSH2 0x845 SWAP1 SWAP2 SWAP1 PUSH4 0xFFFFFFFF AND JUMP JUMPDEST PUSH20 0xFFFFFFFFFFFFFFFFFFFFFFFFFFFFFFFFFFFFFFFF AND EQ SWAP2 POP POP SWAP4 SWAP3 POP POP POP JUMP JUMPDEST PUSH1 0x0 DUP3 PUSH2 0x803 DUP6 DUP5 PUSH2 0x86C JUMP JUMPDEST EQ SWAP1 POP SWAP4 SWAP3 POP POP POP JUMP JUMPDEST PUSH1 0x0 CALLER SWAP1 POP SWAP1 JUMP JUMPDEST PUSH1 0x0 DUP2 PUSH1 0x40 MLOAD PUSH1 0x20 ADD PUSH2 0x828 SWAP2 SWAP1 PUSH2 0x1518 JUMP JUMPDEST PUSH1 0x40 MLOAD PUSH1 0x20 DUP2 DUP4 SUB SUB DUP2 MSTORE SWAP1 PUSH1 0x40 MSTORE DUP1 MLOAD SWAP1 PUSH1 0x20 ADD KECCAK256 SWAP1 POP SWAP2 SWAP1 POP JUMP JUMPDEST PUSH1 0x0 DUP1 PUSH1 0x0 PUSH2 0x854 DUP6 DUP6 PUSH2 0x8C2 JUMP JUMPDEST SWAP2 POP SWAP2 POP PUSH2 0x861 DUP2 PUSH2 0x913 JUMP JUMPDEST DUP2 SWAP3 POP POP POP SWAP3 SWAP2 POP POP JUMP JUMPDEST PUSH1 0x0 DUP1 DUP3 SWAP1 POP PUSH1 0x0 JUMPDEST DUP5 MLOAD DUP2 LT ISZERO PUSH2 0x8B7 JUMPI PUSH2 0x8A2 DUP3 DUP7 DUP4 DUP2 MLOAD DUP2 LT PUSH2 0x895 JUMPI PUSH2 0x894 PUSH2 0x153E JUMP JUMPDEST JUMPDEST PUSH1 0x20 MUL PUSH1 0x20 ADD ADD MLOAD PUSH2 0xA79 JUMP JUMPDEST SWAP2 POP DUP1 DUP1 PUSH2 0x8AF SWAP1 PUSH2 0x159C JUMP JUMPDEST SWAP2 POP POP PUSH2 0x875 JUMP JUMPDEST POP DUP1 SWAP2 POP POP SWAP3 SWAP2 POP POP JUMP JUMPDEST PUSH1 0x0 DUP1 PUSH1 0x41 DUP4 MLOAD SUB PUSH2 0x903 JUMPI PUSH1 0x0 DUP1 PUSH1 0x0 PUSH1 0x20 DUP7 ADD MLOAD SWAP3 POP PUSH1 0x40 DUP7 ADD MLOAD SWAP2 POP PUSH1 0x60 DUP7 ADD MLOAD PUSH1 0x0 BYTE SWAP1 POP PUSH2 0x8F7 DUP8 DUP3 DUP6 DUP6 PUSH2 0xAA4 JUMP JUMPDEST SWAP5 POP SWAP5 POP POP POP POP PUSH2 0x90C JUMP JUMPDEST PUSH1 0x0 PUSH1 0x2 SWAP2 POP SWAP2 POP JUMPDEST SWAP3 POP SWAP3 SWAP1 POP JUMP JUMPDEST PUSH1 0x0 PUSH1 0x4 DUP2 GT ISZERO PUSH2 0x927 JUMPI PUSH2 0x926 PUSH2 0x15E4 JUMP JUMPDEST JUMPDEST DUP2 PUSH1 0x4 DUP2 GT ISZERO PUSH2 0x93A JUMPI PUSH2 0x939 PUSH2 0x15E4 JUMP JUMPDEST JUMPDEST SUB ISZERO PUSH2 0xA76 JUMPI PUSH1 0x1 PUSH1 0x4 DUP2 GT ISZERO PUSH2 0x954 JUMPI PUSH2 0x953 PUSH2 0x15E4 JUMP JUMPDEST JUMPDEST DUP2 PUSH1 0x4 DUP2 GT ISZERO PUSH2 0x967 JUMPI PUSH2 0x966 PUSH2 0x15E4 JUMP JUMPDEST JUMPDEST SUB PUSH2 0x9A7 JUMPI PUSH1 0x40 MLOAD PUSH32 0x8C379A000000000000000000000000000000000000000000000000000000000 DUP2 MSTORE PUSH1 0x4 ADD PUSH2 0x99E SWAP1 PUSH2 0x165F JUMP JUMPDEST PUSH1 0x40 MLOAD DUP1 SWAP2 SUB SWAP1 REVERT JUMPDEST PUSH1 0x2 PUSH1 0x4 DUP2 GT ISZERO PUSH2 0x9BB JUMPI PUSH2 0x9BA PUSH2 0x15E4 JUMP JUMPDEST JUMPDEST DUP2 PUSH1 0x4 DUP2 GT ISZERO PUSH2 0x9CE JUMPI PUSH2 0x9CD PUSH2 0x15E4 JUMP JUMPDEST JUMPDEST SUB PUSH2 0xA0E JUMPI PUSH1 0x40 MLOAD PUSH32 0x8C379A000000000000000000000000000000000000000000000000000000000 DUP2 MSTORE PUSH1 0x4 ADD PUSH2 0xA05 SWAP1 PUSH2 0x16CB JUMP JUMPDEST PUSH1 0x40 MLOAD DUP1 SWAP2 SUB SWAP1 REVERT JUMPDEST PUSH1 0x3 PUSH1 0x4 DUP2 GT ISZERO PUSH2 0xA22 JUMPI PUSH2 0xA21 PUSH2 0x15E4 JUMP JUMPDEST JUMPDEST DUP2 PUSH1 0x4 DUP2 GT ISZERO PUSH2 0xA35 JUMPI PUSH2 0xA34 PUSH2 0x15E4 JUMP JUMPDEST JUMPDEST SUB PUSH2 0xA75 JUMPI PUSH1 0x40 MLOAD PUSH32 0x8C379A000000000000000000000000000000000000000000000000000000000 DUP2 MSTORE PUSH1 0x4 ADD PUSH2 0xA6C SWAP1 PUSH2 0x175D JUMP JUMPDEST PUSH1 0x40 MLOAD DUP1 SWAP2 SUB SWAP1 REVERT JUMPDEST JUMPDEST POP JUMP JUMPDEST PUSH1 0x0 DUP2 DUP4 LT PUSH2 0xA91 JUMPI PUSH2 0xA8C DUP3 DUP5 PUSH2 0xB86 JUMP JUMPDEST PUSH2 0xA9C JUMP JUMPDEST PUSH2 0xA9B DUP4 DUP4 PUSH2 0xB86 JUMP JUMPDEST JUMPDEST SWAP1 POP SWAP3 SWAP2 POP POP JUMP JUMPDEST PUSH1 0x0 DUP1 PUSH32 0x7FFFFFFFFFFFFFFFFFFFFFFFFFFFFFFF5D576E7357A4501DDFE92F46681B20A0 DUP4 PUSH1 0x0 SHR GT ISZERO PUSH2 0xADF JUMPI PUSH1 0x0 PUSH1 0x3 SWAP2 POP SWAP2 POP PUSH2 0xB7D JUMP JUMPDEST PUSH1 0x0 PUSH1 0x1 DUP8 DUP8 DUP8 DUP8 PUSH1 0x40 MLOAD PUSH1 0x0 DUP2 MSTORE PUSH1 0x20 ADD PUSH1 0x40 MSTORE PUSH1 0x40 MLOAD PUSH2 0xB04 SWAP5 SWAP4 SWAP3 SWAP2 SWAP1 PUSH2 0x1799 JUMP JUMPDEST PUSH1 0x20 PUSH1 0x40 MLOAD PUSH1 0x20 DUP2 SUB SWAP1 DUP1 DUP5 SUB SWAP1 DUP6 GAS STATICCALL ISZERO DUP1 ISZERO PUSH2 0xB26 JUMPI RETURNDATASIZE PUSH1 0x0 DUP1 RETURNDATACOPY RETURNDATASIZE PUSH1 0x0 REVERT JUMPDEST POP POP POP PUSH1 0x20 PUSH1 0x40 MLOAD SUB MLOAD SWAP1 POP PUSH1 0x0 PUSH20 0xFFFFFFFFFFFFFFFFFFFFFFFFFFFFFFFFFFFFFFFF AND DUP2 PUSH20 0xFFFFFFFFFFFFFFFFFFFFFFFFFFFFFFFFFFFFFFFF AND SUB PUSH2 0xB74 JUMPI PUSH1 0x0 PUSH1 0x1 SWAP3 POP SWAP3 POP POP PUSH2 0xB7D JUMP JUMPDEST DUP1 PUSH1 0x0 SWAP3 POP SWAP3 POP POP JUMPDEST SWAP5 POP SWAP5 SWAP3 POP POP POP JUMP JUMPDEST PUSH1 0x0 DUP3 PUSH1 0x0 MSTORE DUP2 PUSH1 0x20 MSTORE PUSH1 0x40 PUSH1 0x0 KECCAK256 SWAP1 POP SWAP3 SWAP2 POP POP JUMP JUMPDEST PUSH1 0x0 DUP1 REVERT JUMPDEST PUSH1 0x0 DUP1 REVERT JUMPDEST PUSH1 0x0 PUSH20 0xFFFFFFFFFFFFFFFFFFFFFFFFFFFFFFFFFFFFFFFF DUP3 AND SWAP1 POP SWAP2 SWAP1 POP JUMP JUMPDEST PUSH1 0x0 PUSH2 0xBD2 DUP3 PUSH2 0xBA7 JUMP JUMPDEST SWAP1 POP SWAP2 SWAP1 POP JUMP JUMPDEST PUSH2 0xBE2 DUP2 PUSH2 0xBC7 JUMP JUMPDEST DUP2 EQ PUSH2 0xBED JUMPI PUSH1 0x0 DUP1 REVERT JUMPDEST POP JUMP JUMPDEST PUSH1 0x0 DUP2 CALLDATALOAD SWAP1 POP PUSH2 0xBFF DUP2 PUSH2 0xBD9 JUMP JUMPDEST SWAP3 SWAP2 POP POP JUMP JUMPDEST PUSH1 0x0 PUSH1 0x20 DUP3 DUP5 SUB SLT ISZERO PUSH2 0xC1B JUMPI PUSH2 0xC1A PUSH2 0xB9D JUMP JUMPDEST JUMPDEST PUSH1 0x0 PUSH2 0xC29 DUP5 DUP3 DUP6 ADD PUSH2 0xBF0 JUMP JUMPDEST SWAP2 POP POP SWAP3 SWAP2 POP POP JUMP JUMPDEST PUSH1 0x0 DUP2 SWAP1 POP SWAP2 SWAP1 POP JUMP JUMPDEST PUSH2 0xC45 DUP2 PUSH2 0xC32 JUMP JUMPDEST DUP3 MSTORE POP POP JUMP JUMPDEST PUSH1 0x0 PUSH1 0x20 DUP3 ADD SWAP1 POP PUSH2 0xC60 PUSH1 0x0 DUP4 ADD DUP5 PUSH2 0xC3C JUMP JUMPDEST SWAP3 SWAP2 POP POP JUMP JUMPDEST PUSH2 0xC6F DUP2 PUSH2 0xC32 JUMP JUMPDEST DUP2 EQ PUSH2 0xC7A JUMPI PUSH1 0x0 DUP1 REVERT JUMPDEST POP JUMP JUMPDEST PUSH1 0x0 DUP2 CALLDATALOAD SWAP1 POP PUSH2 0xC8C DUP2 PUSH2 0xC66 JUMP JUMPDEST SWAP3 SWAP2 POP POP JUMP JUMPDEST PUSH1 0x0 PUSH1 0x20 DUP3 DUP5 SUB SLT ISZERO PUSH2 0xCA8 JUMPI PUSH2 0xCA7 PUSH2 0xB9D JUMP JUMPDEST JUMPDEST PUSH1 0x0 PUSH2 0xCB6 DUP5 DUP3 DUP6 ADD PUSH2 0xC7D JUMP JUMPDEST SWAP2 POP POP SWAP3 SWAP2 POP POP JUMP JUMPDEST PUSH1 0x0 DUP2 SWAP1 POP SWAP2 SWAP1 POP JUMP JUMPDEST PUSH2 0xCD2 DUP2 PUSH2 0xCBF JUMP JUMPDEST DUP2 EQ PUSH2 0xCDD JUMPI PUSH1 0x0 DUP1 REVERT JUMPDEST POP JUMP JUMPDEST PUSH1 0x0 DUP2 CALLDATALOAD SWAP1 POP PUSH2 0xCEF DUP2 PUSH2 0xCC9 JUMP JUMPDEST SWAP3 SWAP2 POP POP JUMP JUMPDEST PUSH1 0x0 DUP1 REVERT JUMPDEST PUSH1 0x0 DUP1 REVERT JUMPDEST PUSH1 0x0 DUP1 REVERT JUMPDEST PUSH1 0x0 DUP1 DUP4 PUSH1 0x1F DUP5 ADD SLT PUSH2 0xD1A JUMPI PUSH2 0xD19 PUSH2 0xCF5 JUMP JUMPDEST JUMPDEST DUP3 CALLDATALOAD SWAP1 POP PUSH8 0xFFFFFFFFFFFFFFFF DUP2 GT ISZERO PUSH2 0xD37 JUMPI PUSH2 0xD36 PUSH2 0xCFA JUMP JUMPDEST JUMPDEST PUSH1 0x20 DUP4 ADD SWAP2 POP DUP4 PUSH1 0x1 DUP3 MUL DUP4 ADD GT ISZERO PUSH2 0xD53 JUMPI PUSH2 0xD52 PUSH2 0xCFF JUMP JUMPDEST JUMPDEST SWAP3 POP SWAP3 SWAP1 POP JUMP JUMPDEST PUSH1 0x0 DUP1 DUP4 PUSH1 0x1F DUP5 ADD SLT PUSH2 0xD70 JUMPI PUSH2 0xD6F PUSH2 0xCF5 JUMP JUMPDEST JUMPDEST DUP3 CALLDATALOAD SWAP1 POP PUSH8 0xFFFFFFFFFFFFFFFF DUP2 GT ISZERO PUSH2 0xD8D JUMPI PUSH2 0xD8C PUSH2 0xCFA JUMP JUMPDEST JUMPDEST PUSH1 0x20 DUP4 ADD SWAP2 POP DUP4 PUSH1 0x20 DUP3 MUL DUP4 ADD GT ISZERO PUSH2 0xDA9 JUMPI PUSH2 0xDA8 PUSH2 0xCFF JUMP JUMPDEST JUMPDEST SWAP3 POP SWAP3 SWAP1 POP JUMP JUMPDEST PUSH1 0x0 DUP1 DUP4 PUSH1 0x1F DUP5 ADD SLT PUSH2 0xDC6 JUMPI PUSH2 0xDC5 PUSH2 0xCF5 JUMP JUMPDEST JUMPDEST DUP3 CALLDATALOAD SWAP1 POP PUSH8 0xFFFFFFFFFFFFFFFF DUP2 GT ISZERO PUSH2 0xDE3 JUMPI PUSH2 0xDE2 PUSH2 0xCFA JUMP JUMPDEST JUMPDEST PUSH1 0x20 DUP4 ADD SWAP2 POP DUP4 PUSH1 0x1 DUP3 MUL DUP4 ADD GT ISZERO PUSH2 0xDFF JUMPI PUSH2 0xDFE PUSH2 0xCFF JUMP JUMPDEST JUMPDEST SWAP3 POP SWAP3 SWAP1 POP JUMP JUMPDEST PUSH1 0x0 DUP1 PUSH1 0x0 DUP1 PUSH1 0x0 DUP1 PUSH1 0x0 DUP1 PUSH1 0x0 PUSH1 0xA0 DUP11 DUP13 SUB SLT ISZERO PUSH2 0xE28 JUMPI PUSH2 0xE27 PUSH2 0xB9D JUMP JUMPDEST JUMPDEST PUSH1 0x0 PUSH2 0xE36 DUP13 DUP3 DUP14 ADD PUSH2 0xCE0 JUMP JUMPDEST SWAP10 POP POP PUSH1 0x20 DUP11 ADD CALLDATALOAD PUSH8 0xFFFFFFFFFFFFFFFF DUP2 GT ISZERO PUSH2 0xE57 JUMPI PUSH2 0xE56 PUSH2 0xBA2 JUMP JUMPDEST JUMPDEST PUSH2 0xE63 DUP13 DUP3 DUP14 ADD PUSH2 0xD04 JUMP JUMPDEST SWAP9 POP SWAP9 POP POP PUSH1 0x40 DUP11 ADD CALLDATALOAD PUSH8 0xFFFFFFFFFFFFFFFF DUP2 GT ISZERO PUSH2 0xE86 JUMPI PUSH2 0xE85 PUSH2 0xBA2 JUMP JUMPDEST JUMPDEST PUSH2 0xE92 DUP13 DUP3 DUP14 ADD PUSH2 0xD04 JUMP JUMPDEST SWAP7 POP SWAP7 POP POP PUSH1 0x60 DUP11 ADD CALLDATALOAD PUSH8 0xFFFFFFFFFFFFFFFF DUP2 GT ISZERO PUSH2 0xEB5 JUMPI PUSH2 0xEB4 PUSH2 0xBA2 JUMP JUMPDEST JUMPDEST PUSH2 0xEC1 DUP13 DUP3 DUP14 ADD PUSH2 0xD5A JUMP JUMPDEST SWAP5 POP SWAP5 POP POP PUSH1 0x80 DUP11 ADD CALLDATALOAD PUSH8 0xFFFFFFFFFFFFFFFF DUP2 GT ISZERO PUSH2 0xEE4 JUMPI PUSH2 0xEE3 PUSH2 0xBA2 JUMP JUMPDEST JUMPDEST PUSH2 0xEF0 DUP13 DUP3 DUP14 ADD PUSH2 0xDB0 JUMP JUMPDEST SWAP3 POP SWAP3 POP POP SWAP3 SWAP6 SWAP9 POP SWAP3 SWAP6 SWAP9 POP SWAP3 SWAP6 SWAP9 JUMP JUMPDEST PUSH2 0xF0B DUP2 PUSH2 0xBC7 JUMP JUMPDEST DUP3 MSTORE POP POP JUMP JUMPDEST PUSH1 0x0 PUSH1 0x20 DUP3 ADD SWAP1 POP PUSH2 0xF26 PUSH1 0x0 DUP4 ADD DUP5 PUSH2 0xF02 JUMP JUMPDEST SWAP3 SWAP2 POP POP JUMP JUMPDEST PUSH1 0x0 DUP3 DUP3 MSTORE PUSH1 0x20 DUP3 ADD SWAP1 POP SWAP3 SWAP2 POP POP JUMP JUMPDEST PUSH32 0x4E6565642073797374656D206164647265737300000000000000000000000000 PUSH1 0x0 DUP3 ADD MSTORE POP JUMP JUMPDEST PUSH1 0x0 PUSH2 0xF73 PUSH1 0x13 DUP4 PUSH2 0xF2C JUMP JUMPDEST SWAP2 POP PUSH2 0xF7E DUP3 PUSH2 0xF3D JUMP JUMPDEST PUSH1 0x20 DUP3 ADD SWAP1 POP SWAP2 SWAP1 POP JUMP JUMPDEST PUSH1 0x0 PUSH1 0x20 DUP3 ADD SWAP1 POP DUP2 DUP2 SUB PUSH1 0x0 DUP4 ADD MSTORE PUSH2 0xFA2 DUP2 PUSH2 0xF66 JUMP JUMPDEST SWAP1 POP SWAP2 SWAP1 POP JUMP JUMPDEST PUSH32 0x4E656564206D65726B6C6520726F6F7400000000000000000000000000000000 PUSH1 0x0 DUP3 ADD MSTORE POP JUMP JUMPDEST PUSH1 0x0 PUSH2 0xFDF PUSH1 0x10 DUP4 PUSH2 0xF2C JUMP JUMPDEST SWAP2 POP PUSH2 0xFEA DUP3 PUSH2 0xFA9 JUMP JUMPDEST PUSH1 0x20 DUP3 ADD SWAP1 POP SWAP2 SWAP1 POP JUMP JUMPDEST PUSH1 0x0 PUSH1 0x20 DUP3 ADD SWAP1 POP DUP2 DUP2 SUB PUSH1 0x0 DUP4 ADD MSTORE PUSH2 0x100E DUP2 PUSH2 0xFD2 JUMP JUMPDEST SWAP1 POP SWAP2 SWAP1 POP JUMP JUMPDEST PUSH1 0x0 DUP2 PUSH1 0x60 SHL SWAP1 POP SWAP2 SWAP1 POP JUMP JUMPDEST PUSH1 0x0 PUSH2 0x102D DUP3 PUSH2 0x1015 JUMP JUMPDEST SWAP1 POP SWAP2 SWAP1 POP JUMP JUMPDEST PUSH1 0x0 PUSH2 0x103F DUP3 PUSH2 0x1022 JUMP JUMPDEST SWAP1 POP SWAP2 SWAP1 POP JUMP JUMPDEST PUSH2 0x1057 PUSH2 0x1052 DUP3 PUSH2 0xBC7 JUMP JUMPDEST PUSH2 0x1034 JUMP JUMPDEST DUP3 MSTORE POP POP JUMP JUMPDEST PUSH1 0x0 DUP2 SWAP1 POP SWAP2 SWAP1 POP JUMP JUMPDEST PUSH2 0x1078 PUSH2 0x1073 DUP3 PUSH2 0xCBF JUMP JUMPDEST PUSH2 0x105D JUMP JUMPDEST DUP3 MSTORE POP POP JUMP JUMPDEST PUSH1 0x0 DUP2 SWAP1 POP SWAP3 SWAP2 POP POP JUMP JUMPDEST DUP3 DUP2 DUP4 CALLDATACOPY PUSH1 0x0 DUP4 DUP4 ADD MSTORE POP POP POP JUMP JUMPDEST PUSH1 0x0 PUSH2 0x10A4 DUP4 DUP6 PUSH2 0x107E JUMP JUMPDEST SWAP4 POP PUSH2 0x10B1 DUP4 DUP6 DUP5 PUSH2 0x1089 JUMP JUMPDEST DUP3 DUP5 ADD SWAP1 POP SWAP4 SWAP3 POP POP POP JUMP JUMPDEST PUSH1 0x0 PUSH2 0x10C9 DUP3 DUP8 PUSH2 0x1046 JUMP JUMPDEST PUSH1 0x14 DUP3 ADD SWAP2 POP PUSH2 0x10D9 DUP3 DUP7 PUSH2 0x1067 JUMP JUMPDEST PUSH1 0x20 DUP3 ADD SWAP2 POP PUSH2 0x10EA DUP3 DUP5 DUP7 PUSH2 0x1098 JUMP JUMPDEST SWAP2 POP DUP2 SWAP1 POP SWAP6 SWAP5 POP POP POP POP POP JUMP JUMPDEST PUSH32 0x496E76616C6964205369676E6174757265000000000000000000000000000000 PUSH1 0x0 DUP3 ADD MSTORE POP JUMP JUMPDEST PUSH1 0x0 PUSH2 0x112E PUSH1 0x11 DUP4 PUSH2 0xF2C JUMP JUMPDEST SWAP2 POP PUSH2 0x1139 DUP3 PUSH2 0x10F8 JUMP JUMPDEST PUSH1 0x20 DUP3 ADD SWAP1 POP SWAP2 SWAP1 POP JUMP JUMPDEST PUSH1 0x0 PUSH1 0x20 DUP3 ADD SWAP1 POP DUP2 DUP2 SUB PUSH1 0x0 DUP4 ADD MSTORE PUSH2 0x115D DUP2 PUSH2 0x1121 JUMP JUMPDEST SWAP1 POP SWAP2 SWAP1 POP JUMP JUMPDEST PUSH1 0x0 PUSH2 0x116F DUP3 PUSH2 0xBA7 JUMP JUMPDEST SWAP1 POP SWAP2 SWAP1 POP JUMP JUMPDEST PUSH2 0x117F DUP2 PUSH2 0x1164 JUMP JUMPDEST DUP2 EQ PUSH2 0x118A JUMPI PUSH1 0x0 DUP1 REVERT JUMPDEST POP JUMP JUMPDEST PUSH1 0x0 DUP2 CALLDATALOAD SWAP1 POP PUSH2 0x119C DUP2 PUSH2 0x1176 JUMP JUMPDEST SWAP3 SWAP2 POP POP JUMP JUMPDEST PUSH1 0x0 DUP1 PUSH1 0x40 DUP4 DUP6 SUB SLT ISZERO PUSH2 0x11B9 JUMPI PUSH2 0x11B8 PUSH2 0xB9D JUMP JUMPDEST JUMPDEST PUSH1 0x0 PUSH2 0x11C7 DUP6 DUP3 DUP7 ADD PUSH2 0x118D JUMP JUMPDEST SWAP3 POP POP PUSH1 0x20 PUSH2 0x11D8 DUP6 DUP3 DUP7 ADD PUSH2 0xCE0 JUMP JUMPDEST SWAP2 POP POP SWAP3 POP SWAP3 SWAP1 POP JUMP JUMPDEST PUSH32 0x4261642044617461000000000000000000000000000000000000000000000000 PUSH1 0x0 DUP3 ADD MSTORE POP JUMP JUMPDEST PUSH1 0x0 PUSH2 0x1218 PUSH1 0x8 DUP4 PUSH2 0xF2C JUMP JUMPDEST SWAP2 POP PUSH2 0x1223 DUP3 PUSH2 0x11E2 JUMP JUMPDEST PUSH1 0x20 DUP3 ADD SWAP1 POP SWAP2 SWAP1 POP JUMP JUMPDEST PUSH1 0x0 PUSH1 0x20 DUP3 ADD SWAP1 POP DUP2 DUP2 SUB PUSH1 0x0 DUP4 ADD MSTORE PUSH2 0x1247 DUP2 PUSH2 0x120B JUMP JUMPDEST SWAP1 POP SWAP2 SWAP1 POP JUMP JUMPDEST PUSH32 0x43616E2774206D696E742074686174206D616E79000000000000000000000000 PUSH1 0x0 DUP3 ADD MSTORE POP JUMP JUMPDEST PUSH1 0x0 PUSH2 0x1284 PUSH1 0x14 DUP4 PUSH2 0xF2C JUMP JUMPDEST SWAP2 POP PUSH2 0x128F DUP3 PUSH2 0x124E JUMP JUMPDEST PUSH1 0x20 DUP3 ADD SWAP1 POP SWAP2 SWAP1 POP JUMP JUMPDEST PUSH1 0x0 PUSH1 0x20 DUP3 ADD SWAP1 POP DUP2 DUP2 SUB PUSH1 0x0 DUP4 ADD MSTORE PUSH2 0x12B3 DUP2 PUSH2 0x1277 JUMP JUMPDEST SWAP1 POP SWAP2 SWAP1 POP JUMP JUMPDEST PUSH1 0x0 PUSH2 0x12C6 DUP3 DUP5 PUSH2 0x1046 JUMP JUMPDEST PUSH1 0x14 DUP3 ADD SWAP2 POP DUP2 SWAP1 POP SWAP3 SWAP2 POP POP JUMP JUMPDEST PUSH32 0x4E6F74204F6E20416C6C6F776C69737400000000000000000000000000000000 PUSH1 0x0 DUP3 ADD MSTORE POP JUMP JUMPDEST PUSH1 0x0 PUSH2 0x130B PUSH1 0x10 DUP4 PUSH2 0xF2C JUMP JUMPDEST SWAP2 POP PUSH2 0x1316 DUP3 PUSH2 0x12D5 JUMP JUMPDEST PUSH1 0x20 DUP3 ADD SWAP1 POP SWAP2 SWAP1 POP JUMP JUMPDEST PUSH1 0x0 PUSH1 0x20 DUP3 ADD SWAP1 POP DUP2 DUP2 SUB PUSH1 0x0 DUP4 ADD MSTORE PUSH2 0x133A DUP2 PUSH2 0x12FE JUMP JUMPDEST SWAP1 POP SWAP2 SWAP1 POP JUMP JUMPDEST PUSH32 0x4F776E61626C653A206E6577206F776E657220697320746865207A65726F2061 PUSH1 0x0 DUP3 ADD MSTORE PUSH32 0x6464726573730000000000000000000000000000000000000000000000000000 PUSH1 0x20 DUP3 ADD MSTORE POP JUMP JUMPDEST PUSH1 0x0 PUSH2 0x139D PUSH1 0x26 DUP4 PUSH2 0xF2C JUMP JUMPDEST SWAP2 POP PUSH2 0x13A8 DUP3 PUSH2 0x1341 JUMP JUMPDEST PUSH1 0x40 DUP3 ADD SWAP1 POP SWAP2 SWAP1 POP JUMP JUMPDEST PUSH1 0x0 PUSH1 0x20 DUP3 ADD SWAP1 POP DUP2 DUP2 SUB PUSH1 0x0 DUP4 ADD MSTORE PUSH2 0x13CC DUP2 PUSH2 0x1390 JUMP JUMPDEST SWAP1 POP SWAP2 SWAP1 POP JUMP JUMPDEST PUSH32 0x4F776E61626C653A2063616C6C6572206973206E6F7420746865206F776E6572 PUSH1 0x0 DUP3 ADD MSTORE POP JUMP JUMPDEST PUSH1 0x0 PUSH2 0x1409 PUSH1 0x20 DUP4 PUSH2 0xF2C JUMP JUMPDEST SWAP2 POP PUSH2 0x1414 DUP3 PUSH2 0x13D3 JUMP JUMPDEST PUSH1 0x20 DUP3 ADD SWAP1 POP SWAP2 SWAP1 POP JUMP JUMPDEST PUSH1 0x0 PUSH1 0x20 DUP3 ADD SWAP1 POP DUP2 DUP2 SUB PUSH1 0x0 DUP4 ADD MSTORE PUSH2 0x1438 DUP2 PUSH2 0x13FC JUMP JUMPDEST SWAP1 POP SWAP2 SWAP1 POP JUMP JUMPDEST PUSH32 0x4D697373696E672053797374656D204164647265737300000000000000000000 PUSH1 0x0 DUP3 ADD MSTORE POP JUMP JUMPDEST PUSH1 0x0 PUSH2 0x1475 PUSH1 0x16 DUP4 PUSH2 0xF2C JUMP JUMPDEST SWAP2 POP PUSH2 0x1480 DUP3 PUSH2 0x143F JUMP JUMPDEST PUSH1 0x20 DUP3 ADD SWAP1 POP SWAP2 SWAP1 POP JUMP JUMPDEST PUSH1 0x0 PUSH1 0x20 DUP3 ADD SWAP1 POP DUP2 DUP2 SUB PUSH1 0x0 DUP4 ADD MSTORE PUSH2 0x14A4 DUP2 PUSH2 0x1468 JUMP JUMPDEST SWAP1 POP SWAP2 SWAP1 POP JUMP JUMPDEST PUSH32 0x19457468657265756D205369676E6564204D6573736167653A0A333200000000 PUSH1 0x0 DUP3 ADD MSTORE POP JUMP JUMPDEST PUSH1 0x0 PUSH2 0x14E1 PUSH1 0x1C DUP4 PUSH2 0x107E JUMP JUMPDEST SWAP2 POP PUSH2 0x14EC DUP3 PUSH2 0x14AB JUMP JUMPDEST PUSH1 0x1C DUP3 ADD SWAP1 POP SWAP2 SWAP1 POP JUMP JUMPDEST PUSH1 0x0 DUP2 SWAP1 POP SWAP2 SWAP1 POP JUMP JUMPDEST PUSH2 0x1512 PUSH2 0x150D DUP3 PUSH2 0xC32 JUMP JUMPDEST PUSH2 0x14F7 JUMP JUMPDEST DUP3 MSTORE POP POP JUMP JUMPDEST PUSH1 0x0 PUSH2 0x1523 DUP3 PUSH2 0x14D4 JUMP JUMPDEST SWAP2 POP PUSH2 0x152F DUP3 DUP5 PUSH2 0x1501 JUMP JUMPDEST PUSH1 0x20 DUP3 ADD SWAP2 POP DUP2 SWAP1 POP SWAP3 SWAP2 POP POP JUMP JUMPDEST PUSH32 0x4E487B7100000000000000000000000000000000000000000000000000000000 PUSH1 0x0 MSTORE PUSH1 0x32 PUSH1 0x4 MSTORE PUSH1 0x24 PUSH1 0x0 REVERT JUMPDEST PUSH32 0x4E487B7100000000000000000000000000000000000000000000000000000000 PUSH1 0x0 MSTORE PUSH1 0x11 PUSH1 0x4 MSTORE PUSH1 0x24 PUSH1 0x0 REVERT JUMPDEST PUSH1 0x0 PUSH2 0x15A7 DUP3 PUSH2 0xCBF JUMP JUMPDEST SWAP2 POP PUSH32 0xFFFFFFFFFFFFFFFFFFFFFFFFFFFFFFFFFFFFFFFFFFFFFFFFFFFFFFFFFFFFFFFF DUP3 SUB PUSH2 0x15D9 JUMPI PUSH2 0x15D8 PUSH2 0x156D JUMP JUMPDEST JUMPDEST PUSH1 0x1 DUP3 ADD SWAP1 POP SWAP2 SWAP1 POP JUMP JUMPDEST PUSH32 0x4E487B7100000000000000000000000000000000000000000000000000000000 PUSH1 0x0 MSTORE PUSH1 0x21 PUSH1 0x4 MSTORE PUSH1 0x24 PUSH1 0x0 REVERT JUMPDEST PUSH32 0x45434453413A20696E76616C6964207369676E61747572650000000000000000 PUSH1 0x0 DUP3 ADD MSTORE POP JUMP JUMPDEST PUSH1 0x0 PUSH2 0x1649 PUSH1 0x18 DUP4 PUSH2 0xF2C JUMP JUMPDEST SWAP2 POP PUSH2 0x1654 DUP3 PUSH2 0x1613 JUMP JUMPDEST PUSH1 0x20 DUP3 ADD SWAP1 POP SWAP2 SWAP1 POP JUMP JUMPDEST PUSH1 0x0 PUSH1 0x20 DUP3 ADD SWAP1 POP DUP2 DUP2 SUB PUSH1 0x0 DUP4 ADD MSTORE PUSH2 0x1678 DUP2 PUSH2 0x163C JUMP JUMPDEST SWAP1 POP SWAP2 SWAP1 POP JUMP JUMPDEST PUSH32 0x45434453413A20696E76616C6964207369676E6174757265206C656E67746800 PUSH1 0x0 DUP3 ADD MSTORE POP JUMP JUMPDEST PUSH1 0x0 PUSH2 0x16B5 PUSH1 0x1F DUP4 PUSH2 0xF2C JUMP JUMPDEST SWAP2 POP PUSH2 0x16C0 DUP3 PUSH2 0x167F JUMP JUMPDEST PUSH1 0x20 DUP3 ADD SWAP1 POP SWAP2 SWAP1 POP JUMP JUMPDEST PUSH1 0x0 PUSH1 0x20 DUP3 ADD SWAP1 POP DUP2 DUP2 SUB PUSH1 0x0 DUP4 ADD MSTORE PUSH2 0x16E4 DUP2 PUSH2 0x16A8 JUMP JUMPDEST SWAP1 POP SWAP2 SWAP1 POP JUMP JUMPDEST PUSH32 0x45434453413A20696E76616C6964207369676E6174757265202773272076616C PUSH1 0x0 DUP3 ADD MSTORE PUSH32 0x7565000000000000000000000000000000000000000000000000000000000000 PUSH1 0x20 DUP3 ADD MSTORE POP JUMP JUMPDEST PUSH1 0x0 PUSH2 0x1747 PUSH1 0x22 DUP4 PUSH2 0xF2C JUMP JUMPDEST SWAP2 POP PUSH2 0x1752 DUP3 PUSH2 0x16EB JUMP JUMPDEST PUSH1 0x40 DUP3 ADD SWAP1 POP SWAP2 SWAP1 POP JUMP JUMPDEST PUSH1 0x0 PUSH1 0x20 DUP3 ADD SWAP1 POP DUP2 DUP2 SUB PUSH1 0x0 DUP4 ADD MSTORE PUSH2 0x1776 DUP2 PUSH2 0x173A JUMP JUMPDEST SWAP1 POP SWAP2 SWAP1 POP JUMP JUMPDEST PUSH1 0x0 PUSH1 0xFF DUP3 AND SWAP1 POP SWAP2 SWAP1 POP JUMP JUMPDEST PUSH2 0x1793 DUP2 PUSH2 0x177D JUMP JUMPDEST DUP3 MSTORE POP POP JUMP JUMPDEST PUSH1 0x0 PUSH1 0x80 DUP3 ADD SWAP1 POP PUSH2 0x17AE PUSH1 0x0 DUP4 ADD DUP8 PUSH2 0xC3C JUMP JUMPDEST PUSH2 0x17BB PUSH1 0x20 DUP4 ADD DUP7 PUSH2 0x178A JUMP JUMPDEST PUSH2 0x17C8 PUSH1 0x40 DUP4 ADD DUP6 PUSH2 0xC3C JUMP JUMPDEST PUSH2 0x17D5 PUSH1 0x60 DUP4 ADD DUP5 PUSH2 0xC3C JUMP JUMPDEST SWAP6 SWAP5 POP POP POP POP POP JUMP INVALID LOG2 PUSH5 0x6970667358 0x22 SLT KECCAK256 SELFBALANCE JUMP 0xF PUSH25 0x9C84FD9538646DA123A0DF833CAB5D4BA2920F9D1A01BD6ACB DIFFICULTY PUSH1 0x92 PUSH5 0x736F6C6343 STOP ADDMOD GT STOP CALLER "},"methodIdentifiers":{"merkleRoot()":"2eb4a7ab","owner()":"8da5cb5b","purchase(uint256,bytes,bytes,bytes32[],string)":"86f7876c","renounceOwnership()":"715018a6","setMerkleRoot(bytes32)":"7cb64759","setSystemAddress(address)":"06210197","systemAddress()":"d3e848f1","transferOwnership(address)":"f2fde38b"}}}}}